:08180000341804000000000090
:08188800E61604000000000058
:0818E800AA1704000000000033
:08193000E217040000000000B2
:081BF800851F7800C5002000E4
:101C000003000900B51F78008004EB0008002800DD
:101C10004300AF0083016C000000E00003003A00C5
:101C2000FAFF27000A8560004220AE000105780017
:101C30008A85690001037800830378000306780031
:101C40004220A9004200A9000683D2000680FD00C0
:101C5000F60FB2000600E000A10032004220A90009
:101C60004200A9008783D2000780FD00F70FB20071
:101C70000700E0009F0032004220A9004200A900B6
:101C80000638E1009C003200A30033000900A100E7
:101C90000910A0000684530007037800F10FB2007A
:101CA0000170A000F30FB2000370A00087022000B3
:101CB0000838E100110033004220A9004200A900C9
:101CC0008180D3000080D3000804E900FAFF3A00C5
:101CD0000D003700870220000838E10009003300BA
:101CE0004220A9004200A9008381D3000281D300D1
:101CF0000804E900FAFF3A000F00370002007800FC
:101D000083007800430037000BF0A6001100370075
:101D10000940A7008C0578000000EA0002003200AC
:101D200081C0EA00010037008100EA000940A700F5
:101D30002B003700070037000BF0A6000500370026
:101D40000201EA000200320083C1EA00010037000C
:101D50008301EA00F50FB2004220A9004200A90069
:101D60000200400083C048004200AF000930A000DC
:101D70000900A700090037000910A700010037007B
:101D80000B0037000BF0A700150037000930A70043
:101D9000290037000960A0001E0037000BF0A700E3
:101DA0000F0037000930A700230037001900370063
:101DB0000920A1000BF0A700040037008A05780075
:101DC0000930A7001C003700360037000940A0008A
:101DD00001C8B2000170A700CDFF37008A05780066
:101DE000F10FB200810370000A0032000170A700F9
:101DF000080037004220A9004200A9000080D2005C
:101E00008180D2000603E9004220AF003100370094
:101E1000F6FF37000900A7008A0578000910A7001F
:101E20008C0578000950A6001A0037000AF0A700B8
:101E30000080A0001B0037004200A80081C0D30032
:101E40000080D3004200AF000950A0000603E80064
:101E5000200032000950A600080037000000E8000A
:101E600006003A008140E80004003A0081C0D30037
:101E70000080D3000603E800160032000900A70026
:101E80008A0578000910A7008C0578004220AF0071
:101E9000100037000960A7008A0578000970A700C4
:101EA0008C05780001017000230032000170A10050
:101EB0000680FD004220A9004200A9000683D3004D
:101EC00081006B0001F0A0000BF0A60001F0A10062
:101ED0001900370000002000010020001600370024
:101EE0000AF0A70083016C000200780083007800EC
:101EF0001100370010003700F30FB2000370A0008C
:101F0000F10FB2000170A0000BF0A7000370A10058
:101F10000920A00088FF370007045300F10FB2002A
:101F20000170A000F30FB2000370A0000910A1001F
:101F30000900A00067FF3700250120000300090009
:101F4000CF127800CF02780000000600851F7800CD
:101F5000C500200003000900B51F780000027800CA
:101F60008102780002037800830378000000EB0010
:101F70008000EB000001EB008001EB000800A100F5
:101F800007F0A600050037000800A0000402EA00E0
:101F90008582EA000683EA008783EA0085047200EE
:101FA00002003A0087047300150032003947200010
:101FB0000340A7000B0037004200A9000482D200B2
:101FC0008582D2000683D2008783D2000080D200AF
:101FD0008180D2000281D2008381D2008904E9008D
:101FE000F3FF3A00C44CDD004200A90009F0A10053
:101FF0000340A10083816C000800A70003F0A0004B
:102000002501200003000900CF127800CF027800DC
:1020100000000600881F7800280120000400090045
:10202000B81F780087866900030478008704780069
:10203000FA7F20004200A9004220A90044C4DE002B
:10204000080465000800E0006C0032004200A900AE
:102050004220A900C4CCDE00890465000900E0002C
:10206000660032000005EB00090654000300390049
:10207000FC3FB00061003100040037001B4020002D
:102080000B0656005D0039005C0032000004EB00D6
:102090008004EB000005EB008005EB00F301B200CB
:1020A0000340A000F701B2000740A0008C1F780099
:1020B0006C03200004005000858058000601590080
:1020C00087815900020033000600310006003A0003
:1020D00004004000858048000601490087814900CE
:1020E000010037000800A0000C06E9000B003200D8
:1020F0004200A9000080D2008180D2000281D2007B
:102100008381D2004200A9000884D2008984D200D1
:102110000A85D2008B85D200E6FF37004F06780093
:102120000B50A70001003700060037004200A9004D
:102130008B85D3000A85D3008984D3000884D3001B
:10214000030037000C06E9004200A9002B00320012
:102150004200AF00090037000080D2008180D20029
:102160000281D2008381D20004025000858258008F
:102170000603590087835900150039000804E80058
:1021800013003A008904E80011003A000A05E8004B
:102190000F003A008B05E8000D003A000C06E8003D
:1021A000160032000A0037000C06E9001300320066
:1021B0000B40A700060037004200A9000884D200A7
:1021C0008984D2000A85D2008B85D200F8FF3700BF
:1021D0004466DD004200A9000CF0A1000DF0A7004C
:1021E0000CF0A0000B40A1008B016E000A017800EA
:1021F0008900780008007800050037000000200002
:102200000100200002002000030020000000370031
:10221000A8012000040009004F1478004F04780042
:1022200000000600851F7800C50020000500090099
:10223000B51F78000304780082037800010378005A
:1022400080027800830478003B472000C499DE00B8
:10225000FA7F20008301650083855500F801B200F4
:102260000840A0000000EB008000EB000001EB0044
:102270008001EB004200A9000884D3008783D300CB
:102280000683D3008582D3008381D3000281D300EB
:102290008180D3000080D3008B05E900F5FF3A0070
:1022A00009F0A600050037000000EA008180EA007E
:1022B0000281EA008381EA00000037006501200006
:1022C00005000900CF127800CF0278000000060058
:1022D000881F78002801200004000900B81F78003A
:1022E0008005EB006066B80003047800870478007E
:1022F000FA7F20004200A9004220A90044C4DE0069
:10230000080465000800E000710032004200A900E6
:102310004220A900C4CCDE00890465000900E00069
:102320006B0032000884440009B0A70004003700A5
:10233000F83FB10066003200650039000300370045
:102340001A402000854245006100310087866900FF
:102350004200A9004220A900F300B2000340A000FF
:10236000F700B2000740A000881F78000124B800E1
:10237000002DB8000A0544008B854C000C80B0008D
:102380000224B8008B0544000C864C00012CB800D8
:102390000005EB008B0544000C864C000A80B00061
:1023A0000034B8008B0544000C864C000A80B00055
:1023B0008005EB000324B8000C0644000A854C009D
:1023C0000B80B000022CB8000C0644000A854C00BB
:1023D0000B80B0000134B8000C0644000A854C00A4
:1023E0000B80B000003CB8000C0644000A854C008D
:1023F0000B80B0000C0078000006EB00032CB80046
:102400000A0544008B854C000C80B0000234B800F3
:102410000A0544008B854C000C80B0000334B800E2
:102420008B0544000C864C00013CB8000A054400B2
:102430008B854C000C80B000023CB8008B0544003A
:102440000C864C00033CB8000C0644008A0078005F
:102450000B0178008C017800540020004200A90094
:102460008381D3000281D3008180D3000080D30018
:102470000402E900F9FF3A004F0478000804E8007C
:1024800001037000010032000200370003037100F5
:10249000080032000340A700060037004200A900F0
:1024A0000080D2008180D2000281D2008381D200DC
:1024B0000804E9004444DD0003F0A1000DF0A7008A
:1024C00003F0A0000340A10083016C00030037006B
:1024D0006000B8006001B80000003700A8012000CB
:1024E000040009004F1478004F0478000000060033
:1024F000851F7800861F78000302780003037800A8
:102500004200A90044A2DE00F57F200004826200A0
:1025100003003A006000B8000001EB001300370030
:102520000438B100F300B200370020004200A900D7
:102530000080D2008180D2000281D2008381D2004B
:102540008703E900F9FF3A00010078008200780073
:102550000370A1000480FD004200A9000482D300A2
:1025600006F0A70004F0A00003016A004F03780002
:10257000CF02780000000600851F7800861F7800D3
:10258000871F7800881F78002488BF008001EB0037
:1025900000F0A7008081EB00830078000301780041
:1025A000A60F02000000000004002000050020002B
:1025B00006002000070024000A10020000000000AE
:1025C0008002780001037800820378000304780019
:1025D000851F7800861F7800871F78000500780027
:1025E0008600780007017800880178000400200048
:1025F0000500200006002C00270824000A10020015
:1026000000000000CF0378004F037800CF0278006D
:1026100080027800010378008203780003047800C8
:10262000851F7800861F7800871F780005007800D6
:1026300086007800070178008801780004002000F7
:102640000500200006002000070224006811020097
:1026500000000000CF0378004F037800CF0278001D
:10266000781202000000000001007800820078006B
:102670004F047800CF0378004F037800CF02780032
:102680000000060000017800810178000140780018
:102690000080FD0000F0A0008180D2000180FD00DC
:1026A0008180FB00E40820008140520006003200D7
:1026B0000000E000040032004200A9000080D300C6
:1026C0008100E900FAFF3A0003F0A600020037009B
:1026D0000000EA000000370000000600851F7800B7
:1026E000861F780000027800810278000000EB006D
:1026F0008000EB000600A10005F0A60006003700F0
:102700000600A0000402EA00020032008582EA000E
:10271000010037008502EA008501720013003200D3
:102720000001EB00610B20000270A70007003700DA
:102730004200A9000482D2008582D2000080D2002B
:102740000281D2008100E900F7FF3A000180FD001C
:102750004200A9008180D30001F0A1000270A10015
:10276000814069000600A70001F0A0004F03780037
:10277000CF02780000000600851F7800C500200009
:1027800004000900B51F780000027800810278007B
:1027900083037800020378004200A9004220A900C8
:1027A0008180D2000180FD00F10FB2000100E00045
:1027B0004B0032004200A9004220A9008381D200D0
:1027C0000380FD00F30FB2000300E000440032007C
:1027D0000080FB0001C0410004003100F007B1009F
:1027E0003F0032003E003900020037001048B000C0
:1027F0003B00310007856A004200A9004220A90081
:10280000F50FB2000570A0004200A900F70FB2005A
:102810000770A0000621B800062CB80083014C0008
:10282000890078004200AF008100E8004200A90062
:10283000043CB80083014C0081804C00072CB80098
:1028400081004C000000E8000100E0004220AF00E1
:1028500001003700030037000300E0004220AF0012
:102860000500370001F0A700030037008381D20084
:102870008180D2000000E900010178004200A90037
:102880000370A6000900370007F02F008781610060
:102890000310B000600149000200E00003003A00AC
:1028A0000300E00001003A000000E8000080FD00A5
:1028B0004200A9004220A9008080D3000AF0A700AE
:1028C00001F0A00002F0A1000280FD00814069003B
:1028D0000380FD0003417800020078000300370008
:1028E000000020000100200000003700450120000A
:1028F00004000900CF127800CF0278000000060023
:10290000851F78008102780000017800640B2000A8
:102910008180D2000180FD00F10FB200014252001F
:10292000854178000370A000F30FB2000000EB00B7
:102930008000EB007F20E1000F0033004200A9007F
:102940008381D3000281D3008180D3000080D30033
:102950000402E900F9FF3A0005F0A600060037007E
:102960000000EA00020032008180EA000200370025
:102970008100EA0000003700CF0278000000060066
:10298000861F7800871F7800881F7800891F7800CD
:102990000002EB008002EB000003EB008003EB0081
:1029A0000304690011003200080220004200A9005F
:1029B0000080D2008180D2000482D2008582D200C1
:1029C0000328E10001003A0002A0E1000300390001
:1029D0000202520083825A004200A8000683D200FD
:1029E0008783D2000804E900F0FF3A0087007800EE
:1029F00006007800CF0478004F047800CF037800F9
:102A00004F03780000000600851F7800C5002000F5
:102A100007000900B51F780001F0A6000700370085
:102A20000000EA000100320002003A008100EA00E2
:102A3000010037008180EA000480A0008002EB00E2
:102A400000037800810378000406780004F0A100F8
:102A50000404E00001003A0018003700EB42520085
:102A600016003900054252000CF0A6000B0037009A
:102A70000480A60007003700D00220002322AF0008
:102A8000FEFF370024A2B7000480A1008502E90000
:102A90000A0033000003200001003700000220007C
:102AA0002322AF00FEFF370024A2B7008502E90011
:102AB000FBFF3B000480A7000442E900E80020007F
:102AC000090020001000FA000C377C000884E9009F
:102AD000FDFF3B0084027800A40020000580A700D1
:102AE0000402E80005E0A0000CF0A70005F0A0003B
:102AF0000504E000010032008542E900040F78007F
:102B000015079800060078008700780002A02C00C6
:102B1000A3B92300087122000DF0A1004300A90011
:102B2000C0140200000000000DF0A2000DF0A7008C
:102B3000070037004007980051079800000178000F
:102B4000810178002E009000BE009000F3FF370056
:102B5000420798005307980024079800350798000B
:102B60001E0278009E029000060320000000E00094
:102B700011003A0005E0A600110037000402E90048
:102B8000040F78000400E0000D0032000524E1008D
:102B9000020032004200AF001800370005F0A60026
:102BA000030037000580A60010003700070037003B
:102BB000060220000D00370005E0A100150798006F
:102BC0009E0290000580A600080037000580A10045
:102BD0001507980000057800D00220002322AF00DE
:102BE000FEFF370024A2B7000A007800004043002F
:102BF0002322AF00FEFF370024A2B7004E00900052
:102C0000DE009000A20020008001EB006100E100E6
:102C100001003200C1FF37000080FA00A50120004A
:102C200007000900CF127800CF02780000000600EC
:102C3000851F7800861F78001A88BF00E140800059
:102C400042130200000000008000EB0000F0A7002B
:102C50008080EB001EA8B700014188001E88BF00DD
:102C6000014180006E130200000000004300A80034
:102C700000017800810178001A88BF00E1408000DF
:102C8000FC0D0200000000008002780001037800C3
:102C9000050078008600780002002000832C2400C4
:102CA000BC130200000000008014020000000000BD
:102CB00022A8B700214188001E88BF000141800082
:102CC0000400200004150200000000002322AF00D1
:102CD000FEFF3700E4022000241188002288BF0094
:102CE00021418000040020000415020000000000C3
:102CF0004F037800CF02780000000600851F78009F
:102D0000861F7800871F78000382680004F0A60001
:102D1000060037004200A9004220A90001F0A600E9
:102D2000260037004200A800240037000102780086
:102D30008002780003037800820378008180D2004B
:102D40000180FD008381D2000380FD0081C051001D
:102D50000500320004F0A600180037001000200023
:102D600042E0B600150037008440780086417800C4
:102D70000170A1000370A10081C051000500320064
:102D800004F0A6000D0037001000200042E0B6005D
:102D90000A003700858053000500320004F0A600C9
:102DA000060037001000200042E0B60003003700A4
:102DB0004200A9000100370000003700CF0378006F
:102DC0004F037800CF027800000006004200F800B0
:102DD0003600F8003200F800801F78002000200044
:102DE0000C000900B01F78001008AE00500037003A
:102DF0004300A9000488BF0031408000A2702D006C
:102E000033C22300FC0D02000000000004A8B7003C
:102E1000314088000088BF00114080008001EB0035
:102E200001F0A7008081EB0003017800A60F0200EB
:102E30000000000004002000050020000600200023
:102E4000070024000A100200000000001211020016
:102E5000000000008002780025418800BC120200BA
:102E6000000000004300A800000178008101780004
:102E700000002000813C2400FC0D02000000000046
:102E80000CA8B700714088000408F8001A08F9007F
:102E90000608F8001C08F9001816020000000000DF
:102EA0002322AF00FEFF3700C40220002411880057
:102EB0000808F8001A08F9000A08F8001C08F900C8
:102EC00018160200000000002322AF00FEFF3700AA
:102ED000C4022000241188000C08F8001A08F90028
:102EE0000E08F8001C08F900181602000000000087
:102EF0002322AF00FEFF3700D400200024118800F9
:102F00002322AF00FEFF3700A40020002411880018
:102F10000000200001122400224080003340800085
:102F20007E16020000000000010039001008A90010
:102F30008500A900A00120000C0009004F107800B6
:102F40004F0078003200F9003600F9004200F90025
:102F5000004006004200F8003600F8003200F80099
:102F6000801F7800200020000C000900B01F7800AE
:102F70001008AE000A003700C8A2A800CAA2AE001E
:102F8000040037000028EC004220AF000228EC00CB
:102F9000030037000028ED004200AE000228ED00DB
:102FA0008680A900A00120000C0009004F107800C5
:102FB0004F0078003200F9003600F9004200F900B5
:102FC000004006004200F8003600F8003200F80029
:102FD000801F7800200020000C000900B01F78003E
:102FE0001008AE000A003700C882A800CA82AE00EE
:102FF000040037000028ED004200AE000228ED007A
:10300000030037000028EC004220AF000228EC004B
:1030100087A0A900A00120000C0009004F10780033
:103020004F0078003200F9003600F9004200F90044
:10303000004006001021EF0004E22400640888002C
:103040000E21EF0084012800840888009500A80064
:10305000000006009680A8008220A80097A0A80083
:103060008240A800000006000F782200F07F2200B6
:1030700020A0B7000000000081E0A800600420004C
:1030800042E7B7007005200042E7B70042C7A90039
:10309000F043200080A6B70050F0230082A6B700BE
:1030A000C0F02300A4A6B70020012000C2A6B700EC
:1030B00000302000CCA6B7006004200042E7B70033
:1030C0007005200042E7B70042C7A8004427EF0080
:1030D0000400280004118800044020001411880016
:1030E0002062A80024022000441188000028EF007C
:1030F0000228EF000428EF000628EF000828EF0060
:1031000004142400544088000C28EF000E28EF001F
:103110001008A9002CA3EF000028EF000228EF0000
:1031200081E0A900040E20001402880081E0A800BC
:103130001A180200000000002A1802000000000017
:1031400081E0A9004220EF0081E0A800C8C2A800E9
:10315000CAC2AF00050037001008A8000428EF001D
:103160000628EF000C28EF000E28EF00F7FF3700CD
:043170000040FE001D
:020000040001F9
:0807F800F7F900FF7F3F00FF4D
:00000001FF
;PIC24FJ48GA002
;CRC=2575  CREATED="17-Sep-18 01:45"
